---
title: Quickstart
description: Test your DApp's transactions with the VisualSign parser CLI
---

## Prerequisites

- Rust development environment
- A raw transaction hex from your DApp

## Install the parser CLI

```bash
# Clone the repository
git clone https://github.com/anchorageoss/visualsign-parser.git
cd visualsign-parser/src
```

## Parse your first transaction

Run the parser with a transaction from your DApp:

```bash
cargo run --bin parser_cli -- --chain ethereum -t <your_transaction_hex> --output human
```

Replace `ethereum` with your chain (`solana`, `sui`, or `tron`) and `<your_transaction_hex>` with your actual transaction data.

### Example: Ethereum Transfer

```bash
cargo run --bin parser_cli -- --chain ethereum -t 0xf86c808504a817c800825208943535353535353535353535353535353535353535880de0b6b3a76400008025a028ef61340bd939bc2195fe537567866003e1a15d3c71ff63e1590620aa636276a067cbe9d8997f761aecb703304b3800ccf555c9f3dc64214b297fb1966a3b6d83 --output human
```

Output:
```
┌─ Transaction: Ethereum Transaction
│  Version: 0
│  Type: EthereumTx
│
└─ Fields:
   ├─ Network: Ethereum Mainnet
   ├─ To: 0x3535353535353535353535353535353535353535
   ├─ Value: 1 ETH
   ├─ Gas Limit: 21000
   ├─ Gas Price: 20 gwei
   └─ Nonce: 0
```

### Example: Solana Transaction

```bash
cargo run --bin parser_cli -- --chain solana -t AgAAAAAAAA... --output human
```

## Test hardware wallet view

Users on hardware wallets see a condensed view. Test what they'll see:

```bash
cargo run --bin parser_cli -- --chain ethereum -t <tx_hex> --output human --condensed-only
```

This shows only the essential information that fits on small screens.

## Get JSON output

For programmatic analysis or integration testing:

```bash
cargo run --bin parser_cli -- --chain ethereum -t <tx_hex> --output json
```

Use `jq` to extract specific fields:

```bash
# Get all field labels
cargo run --bin parser_cli -- --chain ethereum -t <tx_hex> --output json | jq -r '.Fields[].Label'

# Get the transaction title
cargo run --bin parser_cli -- --chain ethereum -t <tx_hex> --output json | jq -r '.Title'
```

## Common issues

### Transaction fails to parse

Verify the chain flag matches your transaction and that the hex is properly formatted.

### Missing protocol details

The parser may not recognize your specific contract. You can [contribute a visualization](/contributing/contributing-visualization) for your protocol.

### Amounts display incorrectly

Check that your transaction encodes token decimals correctly. The parser uses on-chain standards for decimal handling.

## Next steps

- [Parser CLI Reference](/parser-cli) - Full CLI documentation with advanced examples
- [Creating Visualizations](/creating-visualizations) - Design patterns for transaction display
- [Contributing a Visualization](/contributing/contributing-visualization) - Add support for your protocol
- [Vision & Roadmap](/vision-roadmap) - Long-term strategy for DApp integration
